:020000040800F2
:1000000028970024F10300082165000829650008ED
:1000100031650008396500084165000800000000EE
:10002000000000000000000000000000496500081A
:10003000516500080000000059650008616500086E
:100040000B0400080B0400080B0400080B04000854
:100050000B0400080B0400080B0400080B04000844
:100060000B0400080B0400080B0400080B04000834
:100070000B0400080B0400080B0400080B04000824
:100080000B0400080B0400080B0400080B04000814
:100090000B0400080B0400080B0400080B04000804
:1000A0000B0400080B0400080B0400080B040008F4
:1000B0000B0400080B0400080B0400080B040008E4
:1000C0000B0400080B0400080B0400080B040008D4
:1000D0000B0400080B0400080B0400080B040008C4
:1000E0000B0400080B040008000000000B040008CB
:1000F0000B0400080B0400080B0400080B040008A4
:100100000B0400080B0400080B0400080B04000893
:100110000B0400080B0400080B0400080B04000883
:100120000B0400080B0400080B0400080B04000873
:10013000716500080B0400080B0400080B0400089C
:1001400000000000000000000000000000000000AF
:100150000B0400080B0400080B0400080B04000843
:100160000B0400080B0400080B0400080B04000833
:100170000B0400080B0400080B040008000000003A
:100180000B0400080B0400080B0400080B04000813
:100190000B0400080B0400080B0400080B04000803
:1001A0000B0400080B0400080B0400080B040008F3
:1001B0000B0400080B0400080B0400080B040008E3
:1001C0000B0400080B0400080B0400080B040008D3
:1001D0000B0400080B0400080B0400080B040008C3
:1001E0000B0400080B0400080B0400080B040008B3
:1001F0000B0400080B0400080B0400080B040008A3
:100200000B0400080B0400080B0400080B04000892
:100210000B0400080B0400080B0400080B04000882
:100220000B0400080B0400080B0400080000000089
:100230000B0400080B040008000000000B04000879
:100240000B0400080B0400080B0400080B04000852
:100250000B0400080B0400080B0400080B04000842
:100260000B0400080B0400080B0400080B04000832
:100270000B0400080B0400080B0400080000000039
:100280000B0400080B0400080B0400080000000029
:10029000000000000B04000800F002F800F099F8DC
:1002A0000AA090E8000C82448344AAF10107DA45D1
:1002B00001D100F08EF8AFF2090EBAE80F0013F08A
:1002C000010F18BFFB1A43F0010318477CE7020037
:1002D0009CE70200103A24BF78C878C1FAD85207C8
:1002E00024BF30C830C144BF04680C6070470000B0
:1002F0000023002400250026103A28BF78C1FBD82F
:10030000520728BF30C148BF0B6070476E2900F00C
:100310005183702900F09384662917F0A085652920
:1003200017F09D85672917F09A85612917F099853F
:1003300003681B0A28BF41F08001692900F0FE8292
:10034000642900F0FB82752900F0F8826F2900F023
:100350002184782900F05F84E92900F0BB83E42937
:1003600000F0B883F52900F0B583EF2900F01E8472
:10037000F82900F05E840368DB0928BF41F08001A2
:10038000632901F08B82732901F09082E32901F047
:100390009B82F32901F0A082002070471FB517F05F
:1003A000BFFC9DE8030000F0CBF901F047FB04001F
:1003B0000020002117F05EFB401C6060002000213F
:1003C00017F042FBE0601FBD10B5002001F0ACFA51
:1003D00010BD01F006FB1146FFF7E0FF01F044FC01
:1003E00001F0E2FB03B4FFF7EFFF03BC00F086F976
:1003F0000948804709480047FEE7FEE7FEE7FEE7B9
:10040000FEE7FEE7FEE7FEE7FEE7FEE704480549F4
:10041000054A064B70470000098B00089902000846
:10042000289100242897002428930024289300244E
:1004300070B5064600F068F9056806F10B0020F07B
:100440000704B4429CBF002070BD2B466A68BAB155
:100450001068A04210D304F1080188423CBF5068E4
:10046000586007D35168101941601168091B016079
:1004700058601460101D70BD13465268002AE7D101
:100480002146284600F048F90028DED170BD70B53D
:100490000446051F00F038F90068002C14BF4468BA
:1004A00070BD002C18BFAC423CBF20466468F8D336
:1004B00001680A18AA4218BF456003D12A68054698
:1004C0001144016028684119A1421CBF6C6070BDD5
:1004D0006168696021680844286070BD1CB50C46DD
:1004E000064B7B4469460090204600F07CFA0446A7
:1004F0000020694600F08AFA20461CBD270500004E
:1005000010B5002000F081FCFFF75EFFBDE8104051
:10051000012000F0F3B80B460146184600F05EBC1F
:100520000EB5054614460E4613A000F075FC28468D
:1005300000F072FC16A000F06FFC304600F06CFC7E
:1005400015A000F069FC00218DF80B100A210DF1B7
:100550000A008DF80A1008E094FBF1F201FB124248
:1005600094FBF1F4303200F8012D002CF4DC00F0A3
:1005700053FCFFF7C5FF00002A2A2A206173736528
:100580007274696F6E206661696C65643A20000060
:100590002C2066696C6520002C206C696E6520003B
:1005A00010B5431C02E010F8011B71B18107FAD1AC
:1005B0004FF0013202C88C1A8C4314EAC211F9D0F0
:1005C000C01A0A0603D0C01E10BDC01A10BD0A040E
:1005D00001D0801E10BD0902FCD0401E10BD40EAB3
:1005E000010370B59B072ED14FF00136042A2AD3A0
:1005F00008C810C99D1B9D43121F15EAC61517D0C8
:10060000D8B2E1B2401A50EA056110D198B2A1B255
:10061000401A50EA05410AD123F07F4024F07F417F
:10062000401A50EA052102D1180EA0EB146070BDEB
:10063000A342DBD018BA21BA884201D9012070BD8B
:100640004FF0FF3070BD0AB9002070BD10F8013BBB
:1006500011F8014B63B1A3420AD1521E08D010F821
:10066000013B11F8014B1BB1A34201D1521EEDD148
:10067000181B70BD0000000030B44FF0013C50F872
:10068000042BCCFA52F451F8043BD51A20D1FCB912
:1006900050F8042BCCFA52F451F8043BD51A17D178
:1006A000B4B950F8042BCCFA52F451F8043BD51AE3
:1006B0000ED16CB950F8042BCCFA52F451F8043B2B
:1006C000D51A05D1002CDAD030BC4FF000007047AD
:1006D00029BAB1FA81F111F01801D1F1200084405A
:1006E000F2D1CA40CB4012F0FF0213F0FF0330BC3E
:1006F000D01A7047704770477047000001491820B2
:10070000ABBEFEE726000200004870474800002408
:10071000704770477047704738B504460A46002056
:100720006946AFF30080002808BF38BD0246009933
:10073000204600F065FC012038BD012001F032B9EF
:10074000F8B5AFF30080054600200C46102000BF2E
:100750000646A819A0420DD9324669460020AFF3DB
:100760000080070008BF01F01DF90098A04218BFE3
:100770000546C419FFF7C8FF05600746F01D20F0C5
:1007800007004619284600F00AF8B44208BFF8BD31
:10079000A21B31463868BDE8F84000F031BC0021AA
:1007A0000160C0E901107047102070472DE9F04743
:1007B00091460C468046FFF7A7FF0768604234EA7F
:1007C000000001D1042C02D20520BDE8F087601E94
:1007D00040F0070609F10B0020F007054D459CBFCE
:1007E0000020BDE8F0873B467A6882B31468101D8C
:1007F000404206EA000C644525D9A4EB0C00854272
:1008000021D8BCF1000F0BD0104601686244A1EB67
:100810000C01116041685160C0F800C05860034687
:10082000116805F10800814205D35019491B016088
:1008300015605860034652F8040F58600020C8F84D
:100840000020BDE8F08713465268002ACED1294621
:100850003846FFF761FF0028C5D10620BDE8F087C4
:1008600010B500F0B5FB006810BD10B5044600F0EF
:10087000AFFB046010BD70B5044685690068C10611
:1008800001D5302600E02026C00707D070BDD4E98E
:10089000012130469047206A401C20626D1EF6D52B
:1008A00070BD70B5044685690078C00707D170BD7A
:1008B000D4E9012120209047206A401C20626D1E4F
:1008C000F6D570BD09684A0501D540B27047C90523
:1008D000FCD500B2704709684A0501D5C0B270471F
:1008E000C905FCD580B2704770B50C460546012A93
:1008F00005D02878800600D5EA69002302E00123AC
:1009000005E05B1C934202D2E05C0028F9D1A869A3
:10091000E618C01AA861286A184428622846FFF71A
:10092000AAFF04E0D5E9012114F8010B9047B44275
:10093000F8D32846FFF7B5FF70BD00002DE9F04160
:100940000646002410687529314616A510D0FFF719
:10095000B9FF002802DA404213A507E031688A0790
:1009600001D512A502E0490704D511A5012401E033
:10097000FFF7B1FF00210A2206F1240709E0B0FBCE
:10098000F2FCB0FBF2F302FB1C0030307854184646
:10099000491C0028F3D123462A463046BDE8F041E1
:1009A00000F08DBB000000002D0000002B000000B7
:1009B0002000000011680268006A530501D5087024
:1009C0000AE0D30501D5088006E0130603D5C21757
:1009D000C1E9000200E008600120704701694A1C7B
:1009E00002610878704700B58FB0CDE90131002170
:1009F000059105497944CDE903101146684600F098
:100A000029F90FB000BD0000E5FFFFFF0A6802F8FA
:100A1000010B0A60704700002DE9FF5F15468A460A
:100A20000446DFF8AC80F8440027D8E900103E46C1
:100A3000CDE9001010E03AF816106A4602A800F05E
:100A40004FFF411C07D02178890603D5E269391888
:100A500091420DD80744761C2078800602D5E069C3
:100A6000B84205DDAE42E6DB3AF816000028E2D1D6
:100A7000A069C01BA0612046FFF7FDFED8E9001069
:100A8000CDE90010002017E03AF818106A4602A8D5
:100A900000F026FFB0F1FF3F81460BD000250DF19D
:100AA000080B05E0D4E901211BF8050090476D1CF7
:100AB0004D45F7D308F10100B0428046E4DB206ADF
:100AC000384420622046FFF7ECFEBDE8FF9F00009F
:100AD000527B01002DE9F0418046D21D22F0070231
:100AE0000025D2E90002F52915A614D0011E72F1E5
:100AF000000106DA0023D0EB030063EB020211A62B
:100B000008E0D8F800108B0701D50FA602E04907CE
:100B100001D50EA601251146002408F1240704E0A2
:100B200000F088FA30323A55641C50EA0102F7D1DD
:100B30002B46324621464046BDE8F04100F0BFBAA0
:100B4000000000002D0000002B000000200000002D
:100B500030B4002100F1240408E002F00705D208B7
:100B6000303542EA4372DB086554491C52EA0305FA
:100B7000F3D10468002310A2250708D504F020044F
:100B80000C4304D0C46901230CA2641EC46130BCB0
:100B900000F095BA10B5044621461068FFF79BFE99
:100BA00002462046BDE810400023D1E7D21D22F0C6
:100BB0000701D1E90023CBE700000000300000006E
:100BC000F0B40D460188090502D5214C7C4402E0B1
:100BD0001F4C7C440E34002100F1240608E002F092
:100BE0000F071209E75D42EA03721B097754491C9B
:100BF00052EA0307F3D102780023120704D5702DBF
:100C000006D009B1022311342246F0BC00F057BAD5
:100C100001231034F8E770B504460D4621461068EC
:100C2000FFF759FE024629462046BDE870400023E2
:100C3000C6E7D21D22F00703D3E90023C0E703680B
:100C4000126843F0200303600823C3610023B7E761
:100C5000B47901002DE9F05F894604464FF0000A9F
:100C6000DFF874B1FB44C0F820A02046E168884753
:100C7000002874D0252806D0D4E901219047206AA5
:100C8000401C2062F1E700265F462046E168884765
:100C90002028054607DB312D05D2781910F8200CE5
:100CA00008B10643F1E7B00701D526F00406C4F801
:100CB0001CA00027C4F818A02A2D09D0284616F039
:100CC000AFFE38B304EB8708303DC8F8185019E080
:100CD00059F8041B204604EB87029161E1688847BC
:100CE000012F054618D1E069002820DA26F02006F9
:100CF0001DE0D8F8180000EB800005EB400030380C
:100D0000C8F818002046E1688847054616F088FEB6
:100D10000028EED1012F0AD02E2D08D12046E168FF
:100D200088477F1C0546022F46F02006C4DBA069D9
:100D3000002803DA404246F00106A061F00701D026
:100D400026F010066C2D0BD0682D09D04C2D39D013
:100D50006A2D35D0742D35D07A2D33D016E038E099
:100D6000E1682F4620468847B842054609D16C2FD6
:100D700026D04FF48060E168064320468847054648
:100D800004E06C2F1AD04FF4807006430DB3A5F128
:100D90004100192802D8203546F400664A46294603
:100DA000204626604E46FFF7B1FA80B101280BD0ED
:100DB000F61D26F0070000F1080956E74020E4E799
:100DC0008020D8E70020D6E706F104094DE7284641
:100DD00052E7206ABDE8F09F447901002DE9F04117
:100DE000074615460E461020FFF722FB04000AD0E6
:100DF0006760C4E9026500F0E7F8016821600460FB
:100E00000020BDE8F0810120FBE710B500F0B2FD45
:100E1000BDE8104000F0A9BD10B5044602E0641C16
:100E200000F0C4F820780028F9D110BD032A40F260
:100E3000308010F0030C00F0158011F8013BBCF17C
:100E4000020F624498BF11F801CB00F8013B38BF94
:100E500011F8013BA2F1040298BF00F801CB38BFA2
:100E600000F8013B11F0030300F02580083AC0F0C0
:100E7000088051F8043B083A51F804CBA0E8081068
:100E8000F5E7121D5CBF51F8043B40F8043BAFF39B
:100E90000080D20724BF11F8013B11F801CB48BFF5
:100EA00011F8012B24BF00F8013B00F801CB48BF2B
:100EB00000F8012B704710B5203AC0F00B80B1E864
:100EC0001850A0E81850B1E81850A0E81850203A7F
:100ED000BFF4F5AF5FEA027C24BFB1E81850A0E888
:100EE000185044BF18C918C0BDE810405FEA827CA2
:100EF00024BF51F8043B40F8043B08BF7047D207B9
:100F000028BF31F8023B48BF11F8012B28BF20F859
:100F1000023B48BF00F8012B70474FF00002042944
:100F2000C0F0128010F0030C00F01B80CCF1040C18
:100F3000BCF1020F18BF00F8012BA8BF20F8022B4C
:100F4000A1EB0C0100F00DB85FEAC17C24BF00F8F2
:100F5000012B00F8012B48BF00F8012B70474FF020
:100F6000000200B5134694469646203922BFA0E8F9
:100F70000C50A0E80C50B1F12001BFF4F7AF090705
:100F800028BFA0E80C5048BF0CC05DF804EB8900F6
:100F900028BF40F8042B08BF704748BF20F8022B39
:100FA00011F0804F18BF00F8012B704708B5694653
:100FB0008DF800000320ABBE08BD0000004870475C
:100FC000400000247047000000487047780000246B
:100FD000004870474000002470B5A0FB0140B4F108
:100FE000805170F1000024BF002070BD2046FFF743
:100FF0001FFA05001CBF2146FFF78FFF284670BD72
:10100000034640688C46002818BF88423CBF034610
:101010004068F8D318681844884207D00CF10300E0
:1010200020F00700001D411A521A0146081D0A60EF
:10103000FFF72DBA30B5B0F10A0271F100034FEAA3
:10104000900E4EEA817EB0EB0E0061EB91014FEA0B
:10105000101E4EEA017E10EB0E0041EB11114FEA1B
:10106000102E4EEA016E10EB0E0041EB11214FEAFB
:10107000104E4EEA014E10EB0E0041EB11414018AC
:1010800041F100014FEAD00040EA41704FEAD1013E
:101090004FEA810444EA907410EB800544EB0104AC
:1010A0006D1944EB0404521BA3414FF0000348BFE9
:1010B0000A3200D530BD401C41F1000130BD2DE9A0
:1010C000F0470D4699469246044600F1240801680F
:1010D000880604D5E06921F01001216000E00120BC
:1010E000A84201DD471B00E00027A1697A1902EB45
:1010F0000900081AA0612078C00602D42046FFF734
:10110000BAFB002608E0D4E901211AF8060090474E
:10111000206A401C761C20624E45F4DB2078C00615
:101120000AD52046FFF7A7FB06E0D4E901213020CD
:101130009047206A401C2062381EA7F10107F4DCAA
:1011400007E0D4E9012118F805009047206A401C07
:101150002062281EA5F10105F3DC2046FFF7A1FB64
:101160002078000602D50220BDE8F0870120FBE7C9
:101170002DE9FF4F0C461E464FF0FF378BB0D2E9EA
:101180000001DDF860800A908A46C1F30A5505B96E
:101190003D46002108464FF00000BAF1000F00F470
:1011A000400005DA00EB80004FF4400101EA5000F6
:1011B0004FEA9059B9F1010F00DDB9460A9850EA9B
:1011C0004A000ED044F61050A5F2FF3545432F14C7
:1011D000B8F1000F1ED07542291E1EDDC9F10002B4
:1011E0001CE0B8F1010F4FF0000001D0302103E006
:1011F000F24305E02154401CB042FBDB30460022A4
:10120000002121540B99C1F80880C1E900200FB0DA
:10121000BDE8F08FBD1B6D1CDEE74A4600DA69426F
:1012200006A800F04FFC06AB93E8070003AB83E889
:10123000070050460A9914F08CFD8DE80700A0F5D0
:1012400000501F3800900398002D0ADD42F21F0164
:101250004A460844002303A90390684614F0F5FFAA
:1012600009E0A0F500504A461F38002303A9039067
:10127000684614F0FFFF8DE807000004000C03D05F
:101280004FF0FF30410800E01046B8F1000F03D0E6
:101290000022009215461EE0751E05D4FFF7CAFE17
:1012A000303262556D1EF9D5B3460122084302D093
:1012B00000227F1C04E02078302801D100227F1E0C
:1012C000002A099784D01DE0112D07DAFFF7B2FE3E
:1012D000303262556D1C50EA0102F5D1084302D04C
:1012E0000098C8B10EE00021681E05E0235C625C36
:1012F00063542254401E491C8142F7DBAB46A81BB5
:10130000401E0990002004F80B000B98099AC0F8C1
:101310000880C0E9002B7AE711264FF0000857E754
:101320002DE9F04F88460446D21D22F0070191B006
:10133000D1E90001CDE90A0115F0D3F802460B9876
:10134000C00F01D02D2007E02068810701D52B2098
:1013500002E0202101EAC000032A099001D0072AF7
:1013600005DB03464146204600F06CFB0BE120788C
:10137000800601D5E06900E00620B8F1650F8146DE
:1013800006D0B8F1660F18D0B8F1670F70D131E010
:101390000020B9F1110F009001DB112301E009F1E8
:1013A00001030AAA01A90CA8FFF7E2FEDDE90C700F
:1013B000002609F10105834647E001204B460090D5
:1013C0004FF000470AAA01A90CA8FFF7D1FEDDE9FA
:1013D0000DB00C995D46002610B909F101000D18F9
:1013E000B9EB050003D4C0F1FF3609F10105A5EB07
:1013F00009002BE0B9F1010F01DA4FF001090020DB
:10140000B9F1110F0090484601DD112300E00346B9
:101410000AAA01A90CA8FFF7ABFEDDE90C704D4646
:1014200000268346207800070AD4AB4500DA5D46E3
:1014300001A8012D04DD411911F8011C302907D044
:101440004F4502DA17F1040F04DA012082460FE05B
:101450006D1EEEE7002F02DCED1B3E4403E0781C1E
:10146000A84200DD7D1CB81B00F1010A4FF00047C7
:101470002078000703D4AA4501DB4FF0FF3A002192
:10148000B7F1004F0DF143088DF8431024D002202E
:101490002B23002F01DA7F422D230A21021EA0F107
:1014A000010000DC5FB197FBF1FC97FBF1F201FB5F
:1014B0001C7C17460CF1300C08F801CDEEE7A8F1C2
:1014C000010003702188090501D5452100E065214F
:1014D000A0F1010800F8011C09980FA9A1EB080769
:1014E000FF1D00B10120411901EBEA70A1693844E8
:1014F000081A401EA0612078C00602D42046FFF7DB
:10150000BAF9099828B1D4E901219047206A401C12
:1015100020622078C00622D52046FFF7ACF91EE0F5
:10152000002E04DBB34502DD01A8805D00E0302021
:10153000D4E901219047206A401C2062761CAAF160
:1015400001005FEA000A0AD100F078FAC068016879
:10155000405CD4E901219047206A401C2062281E8B
:10156000A5F10105DCDC07E0D4E9012118F8010B45
:101570009047206A401C2062381EA7F10107F3DC67
:101580002046FFF78EF9032011B041E62DE9F04F18
:1015900004460D46D21D22F0070089B0D0E900971D
:1015A0004846394614F09DFF0246F80F01D02D231E
:1015B00007E02068810701D52B2302E0202101EA02
:1015C000C0038DF820300BB1012000E00020032A79
:1015D000824601D0072A04DB2946204600F032FA71
:1015E0003FE12078800601D40D2500E0E569C7F3CE
:1015F0000A560D2D49DA00214FEA175B08464FF0D5
:101600000000002F00F4400007DA00EB80004FF4E8
:10161000400100EBD07001EA60008115012901DD75
:101620004FF0FF3100224FEA850CBCF1180F06D3B2
:101630001346ACF118004FF08052C24003E04FF463
:10164000801323FA0CF30CF10C0CBCF1200F04D323
:10165000ACF1200C09FA0CF001E007FA0CF00029BB
:101660004FF0004801DD18B90FE00ED140450CD312
:1016700019EB02095F4121B9404502D19F4329EA94
:101680000209BBEB175F00D0761C2088000502D54D
:101690007B48784402E07A487844193808AA302315
:1016A00002F80A30037C0AF10101002E0AF1020A55
:1016B00053546A4602DC4FF0300101E04FF0310133
:1016C0004FF001088DF8001002D0A6F2FF3603E0BB
:1016D00059EA470100D06B4E002D02DC2178090742
:1016E00004D54FF002082E218DF80110C4460021C8
:1016F0000BE0C7F303433F01C35C491C6D1E02F8B6
:101700000830052908F1010801DA002DF1DC00217B
:101710000CE000EB1973491C1B786D1E082902F8B8
:1017200008304FEA091908F1010801DA002DF0DC50
:1017300021688B0602D516E0A8F10108E04505DD19
:1017400002EB080313F8013C302BF5D0B8F1000F81
:1017500009DD02EB080313F8013C2E2B03D1090726
:1017600001D4A8F10108002D05DD3E2102F8081082
:101770006D1E08F10108407C002E02F8080008F1F7
:10178000010804DA2D20764202F8080002E02B203E
:1017900002F808000A214FF47A70864208F1010825
:1017A0000BDB96FBF0F3303302F8083096FBF0F3D6
:1017B00008F1010800FB136601E0642E0CDB6420D5
:1017C00096FBF0F3303302F8083096FBF0F308F1A3
:1017D000010800FB136601E00A2E06DB96FBF1F020
:1017E000303002F8080008F1010896FBF1F001FB27
:1017F0001060303002F80800A16908F1010808EB18
:10180000050202EB0A00081AA0612078C00602D483
:101810002046FFF730F8216A08AE01EB0A0020628B
:1018200004E0D4E9012116F8010B9047BAF1010A4E
:10183000F7D22078C00602D52046FFF71CF86E4686
:1018400009E016F8010B3E280FD0D4E9012190479A
:10185000206A401C2062B8F10108F2D22046FFF74E
:1018600020F809B00320BDE8F08F206A28442062E8
:1018700003E0D4E90121302090476D1EEBD3F8E757
:101880009570010002FCFFFF10B5436913B1AFF37F
:10189000008001E0FFF728F8012010BD127800F168
:1018A00024010A7000224A700122EDE711684FF00E
:1018B000FF32E9E710B5436913B1AFF3008001E0EF
:1018C000FFF7AAF8012010BD128800F124018284DC
:1018D0000022C2840122EDE711684FF0FF32E9E7F0
:1018E0002DE9F04116460C46054600F09FF80368C6
:1018F00093F80101012807D0FF2C12D8185D80B1A0
:1019000001202C70BDE8F081D3F807013246214652
:1019100003F20713C7182846BC46BDE8F041002370
:1019200060474FF0FF30EDE72DE9F0410646FFF745
:101930004BFB8046454613E016B1E068B0420ED13D
:1019400020682860D4E90101D8F800708847204653
:10195000FEF79DFDD8F80000B842EBD100E0254627
:101960002C68002CE8D1BDE8F081002801D0FEF7FA
:10197000C5BE704710B5002102A000F01EF901207D
:1019800010BD0000534947414252543A2041626E13
:101990006F726D616C207465726D696E6174696FD0
:1019A0006E00000010B500F021F9BDE81040FFF70F
:1019B000DCBF000080E8FF1FC0F834D0C0F838E07A
:1019C000C0F83CE04FF00000704700BF80EC200BF7
:1019D000704700BF80EC200B704700BFC0EC200BAD
:1019E00070477546FFF7EAFAAE460500694653466A
:1019F00020F00700854618B020B5FEF707FDBDE8CA
:101A000020404FF000064FF000074FF000084FF065
:101A1000000BAC46ACE8C009ACE8C009ACE8C009B2
:101A2000ACE8C00921F007018D46704710B500F001
:101A300005F8001D10BD00BF3D6001000048704763
:101A4000600000242DE9F0411F460446032601688A
:101A5000072A01F4006004DB08B116A505E016A50D
:101A600003E008B115A500E015A521F010002060E5
:101A7000A069C01EA0610FB1401EA0612046FEF704
:101A8000FAFE4FB1D4E9012138469047206A401C44
:101A90002062C01C206206E0206AFAE7D4E9012136
:101AA00015F8010B9047761EF8D22046FEF7F9FE96
:101AB000BDE8F0814E414E006E616E00494E460019
:101AC000696E66002DE9F047814616468AB03548B2
:101AD00078440DC88DE80D0032487844801C03AC72
:101AE0000DC884E80D0041F69B300844372190FB77
:101AF000F1F290FBF1F5A5F1800501FB12041B3C0E
:101B000002D56442012000E00020DFF898A0804662
:101B10000027FA44AAF1BE0A0EE0E0070AD03246D6
:101B2000684607EB470101230AEB810114F0A2FB91
:101B30008DE8070064107F1C002CEED1194F7F4404
:101B4000AE3F19E0E80715D007EB04100DF1180AB5
:101B500090E80E008AE80E00C068F04201D19819A2
:101B600008903246012306A903A814F083FB03ABB7
:101B700083E807006D10641C002DE3D14FF00103D2
:101B800032466946B8F1000F03A802D014F05DFB9D
:101B900001E014F06FFBC9E90001C9F808200AB0A0
:101BA000BDE8F087F06C010010B50446AFF300808B
:101BB0002046BDE81040FEF715BC70B505460C4642
:101BC0000A2000E06D1CFFF7F1F935B128780028F4
:101BD000F8D102E0641CFFF7E9F914B1207800287D
:101BE000F8D1BDE870400A20FFF7E0B910B5012830
:101BF00005D0002103A0FFF7E0FF012010BD09A1DF
:101C0000F8E7000053494752544D454D3A204F756F
:101C100074206F662068656170206D656D6F7279E4
:101C2000000000003A2048656170206D656D6F729C
:101C30007920636F727275707465640086469EE8E1
:101C4000FF1FDEF834D0DEF83CE0704790EC200B4C
:101C5000704700BF90EC200B704700BFD0EC200B0A
:101C600070470000000000002DE9F04F81B02DED1D
:101C7000108BD2B04FF6B4514EF66074CFF6FF71B0
:101C8000CEF20004605810F4003F12D1BFF34F8F22
:101C90000020BFF36F8F44F8100CBFF34F8FBFF3DA
:101CA0006F8F605840F400306050BFF34F8FBFF328
:101CB0006F8F605810F4803F40F08A804FF62460A8
:101CC000002143F6E07BCFF6FF7021504FF62060F5
:101CD000BFF34F8FCFF6FF702058C0F34E33C0F3E1
:101CE000C90AAAF103011991C1084FEA81790121BA
:101CF00001EBD00000F00307AAF102001B9080075F
:101D00001890AAF1010081071A9100BF1A460BEA48
:101D10004313002F514611D049EA0301012F2160DE
:101D200001460BD01A99022F41EA030121601B9949
:101D300004D0189919432160199900BFBAF1030F13
:101D400034D34E1CCD1C43EA817CA1F1030843EA45
:101D5000867643EA85758CF0004E00BFB8F1000F1F
:101D6000C4F800C02560C4F800E026601FBFC4F8B6
:101D700000C02560C4F800E0266018BFB8F1040F69
:101D800014D0B8F1080FC4F800C02560C4F800E012
:101D900026600BD0A8F11008C4F800C02560C4F874
:101DA00000E0266018F10401D8D100BF531E002ABC
:101DB000ACD14FF6B450BFF34F8FCFF6FF70014652
:101DC000205840F480306050BFF34F8FBFF36F8FC7
:101DD0004EF60C584FF6FF01CEF20008D8F800007E
:101DE000084040F20031C0F2FA510843C8F8000040
:101DF00004F00AFE44F200474DF2743940F2000547
:101E0000C5F60207C0F60209C2F20045B969BA690F
:101E1000C1F3032119F8011001F01F01C84044F675
:101E2000D351C1F262012860A0FB01014FF0FF30E5
:101E300000EB91110020B0EB116F20D14EF2100297
:101E4000F023CEF2000251606FF40F716354072348
:101E500090601360D8F80020605440F264200121A3
:101E6000C2F200400170D7F8F40040F00200C7F859
:101E7000F400D7F8F40000F002001D901D9844F61D
:101E80001800C5F6020050F80C2C50F80C1C12F08B
:101E9000040F31D0022262F3020140F80C1C40F220
:101EA0006821C2F200410A6850F8143C13F4005F44
:101EB00022D10B689B1AB3F57A7F1DD850F8143CD9
:101EC00013F4005F18D10B689B1AB3F57A7F13D80F
:101ED00050F8143C13F4005F0ED10B689B1AB3F555
:101EE0007A7F09D850F8143C13F4005F04D10B68D2
:101EF0009B1AB3F57A7FD7D900211D91016841F46F
:101F000040410160016801F440411D9140F22C41C3
:101F1000C5F600010A6842F001020A60096801F092
:101F200001011D911D9900BF016811F4005F04BFFC
:101F3000016811F4005F07D1016811F4005F03D15B
:101F4000016811F4005FEFD03969B86A11F0380107
:101F500030D0182908BF5FEA80702BD0386820F095
:101F6000190040F00100386040F26820C2F20040E1
:101F700001683A6812F0040F1DD10268521A022A51
:101F800047D83A6812F0040F15D10268521A022A93
:101F90003FD83A6812F0040F0DD10268521A022A93
:101FA00037D83A6812F0040F05D10268521A022A93
:101FB000DFD92EE0386841F200000022C5F600406B
:101FC000C1F2040201687868914204D220F47C30A6
:101FD0004FF4003103E020F0FE404FF08041084311
:101FE0007860386900F03800182816D1B86A396B63
:101FF0004FF6FF72C7F67F72114040F23B22C0F2EB
:102000000612914202BF40F2F3310840402800F02E
:102010008380EFF3108072B6FEE7386820F080709E
:10202000386040F26820C2F2004001683A6812F05D
:10203000007F1CD00268521A022AEAD83A6812F0CD
:10204000007F14D00268521A022AE2D83A6812F0CD
:10205000007F0CD00268521A022ADAD83A6812F0CD
:10206000007F04D00268521A022ADFD9D1E7B96A88
:1020700040F2F33291434FF6F87241F04001B962F9
:1020800040F23B21C0F206113963F96A21F00101E7
:10209000F962796B91437963F96A41F00C01F96255
:1020A000F96A21F00201F962F96A41F48031F962BA
:1020B000F96A41F40031F962F96A41F48021F96268
:1020C000F96A41F00101F962396841F080713960C3
:1020D00001683A6812F0007F1ED10268521A022A83
:1020E00097D83A6812F0007F16D10268521A022A75
:1020F0003FF68FAF3A6812F0007F0DD10268521A96
:10210000022A3FF686AF3A6812F0007F04D10268D7
:10211000521A022ADDD97CE742F20000C5F2002003
:10212000016811F00C0F0AD10168042262F3030167
:102130000160016801F00F01042940F02882B969AB
:1021400011F0400F01BFB969042262F30611B961B1
:10215000F96911F0400F01BFF969042262F3061119
:10216000F961F96911F4806F01BFF969042262F322
:102170000A21F961396A11F0400F01BF396A04225E
:1021800062F306113962B96911F0080F01BFB9692C
:10219000082262F30301B961B96921F47061B96180
:1021A000396811F0007F00F0F2813969032240F2B2
:1021B0006826C2F2004662F30201396131683A6969
:1021C00002F03802182A40F0B881B96901F00F0115
:1021D000092921BFB969082262F30301B9610168C5
:1021E00001F00F0105290AD30168042262F30301FB
:1021F0000160006800F00F00042840F0C881B86951
:1022000000F07000412821BFB869042161F3061075
:10221000B861F86900F07000412821BFF869042115
:1022200061F30610F861F86900F4E060B0F5806FC2
:1022300081BFF869042161F30A20F861386A00F06F
:102240007000412821BF386A042161F3061038620A
:1022500004F0DAFBB969BA6944F6D356C1F26206F2
:10226000C1F3032119F8011001F01F0120FA01F256
:1022700040F264201021C2F200402A60A2FB062630
:1022800003784FF0FF3202EB96120026002B18BFA6
:102290000021B6EB126F40F07A814EF2100AF02561
:1022A000002BCEF2000ACAF804206FF40F72A55476
:1022B000CAF808604FF00706CAF8006000F06781AE
:1022C000D8F800300DF1740BC3F302231E1DDD1E80
:1022D00083F00703072E4FF0010638BF0025042BBB
:1022E00028BF042306FA03F31F331940A94040F224
:1022F00018450901C5F60205A154067000262C46B2
:102300004FF40031CDE92066D7F8E00040F010002E
:10231000C7F8E000D7F8E00000F010004C904C98AF
:10232000D7F8E00040F00400C7F8E000D7F8E0007C
:1023300000F004004C904C98D7F8E00040F02000EA
:10234000C7F8E000D7F8E00000F020004C904C986F
:10235000D7F8E00040F08000C7F8E000D7F8E000D0
:1023600000F080004C904C98D7F8E00040F002005C
:10237000C7F8E000D7F8E00000F002004C904C985D
:10238000D7F8E00040F00800C7F8E000D7F8E00018
:1023900000F008004C904C9844F60000C4F2000095
:1023A00000F5384044F8180941F21800C5F602005B
:1023B00001604FF400501E9659461D9005F57A7045
:1023C0001F9605F031FE44F201004FF00109594615
:1023D0001D902046CDE91E96209605F025FECDF8ED
:1023E00078904FF00209594644F6000B05F6E830A4
:1023F000CDF87490CDE91F66C4F2000B05F014FE11
:10240000D7F8D8000C2140F00200C7F8D800D7F860
:10241000D80000F002001D901D98D8F800004FF27F
:102420003070CFF6FF7008F8006040F2C0084FF03F
:102430008050CAF8F400C2F200484FF4E130C8E915
:102440000866C8F82860C8E900B0C8E90266C8E9AB
:102450000461C8E90666D8F88400002800F09B8073
:1024600000234FF0000C002000245A46242520436E
:1024700040F2000A8024C8F884500843C2F2004A9F
:10248000156840EA0C0025F00105156046F6F315C5
:102490001168CCF6FF75294008434FF2FF411060E8
:1024A000C1F2FF11506820F44050184340F6004339
:1024B0005060C5F60003D8F820009A4218BF0643C2
:1024C0009068084030439060D06AD8F8241020F01B
:1024D0000F000843D06247F2FF70C4F2000082424E
:1024E00040F3738040F6FF7040F26825C4F20100AB
:1024F000C2F20045824240F3A8809A4200F00E8169
:1025000041F20040C4F20100824200F01F8141F21A
:102510000000C4F20100824240F08381786DC0F374
:10252000C200052800F27C810124DFE810F07A0166
:102530001B016D0171012001750141F28832336880
:102540005B1A934223D83B6903F03803182B3FF4FE
:102550003CAE33685B1A934219D83B6903F03803E9
:10256000182B3FF432AE33685B1A93420FD83B69A5
:1025700003F03803182B3FF428AE33685B1A9342FC
:1025800005D83B6903F03803182BD8D11DE6EFF3CB
:10259000108072B6FEE71DACBC2188F880605096B2
:1025A000CDE94E66CDE94C662046FEF7D8FC2046C4
:1025B0003A96CDF8749004F0AFFA002800F06280EB
:1025C000EFF3108072B600BFFEE744F6FF3040F232
:1025D0006825C4F20000C2F20045824218DC44F2D1
:1025E0000040C4F20000824200F080805A4540F072
:1025F0001881786D00F00700052800F21181002491
:10260000DFE810F00F01B00002010601B5000A0179
:1026100044F60040C4F20000824200F0738045F2AC
:102620000000C4F20000824240F0FB80786D00F0B0
:102630000700052800F2F4800024DFE810F0F20023
:102640009300E500E9009800ED0047F60000C4F2B1
:102650000000824200F06E8047F60040C4F20000A5
:10266000824240F0DE80786D00F00700052800F21D
:10267000D7800024DFE810F0D5007600C800CC0039
:102680007B00D000D7F8E8004CA940F48020C7F8C0
:10269000E800D7F8E80000F480201C901C98D7F8D8
:1026A000E00040F00800C7F8E000D7F8E00000F0D4
:1026B00008001C901C9802204D904FF440704C90E4
:1026C0000020CDE94E000720509040F21840C5F69A
:1026D000020000F5FD6005F0A7FC08F1100CD8E938
:1026E00002439CE84310D8F80020BFE6786D00F064
:1026F0000700052800F294800024DFE800F0923300
:102700008589388D786D00F00700052800F28880F3
:102710000024DFE800F08627797D2C81B86D00F079
:102720000700052800F27C800224DFE800F07A1B15
:102730006D712075786D00F00700052800F270803B
:102740000024DFE800F06E0F61651469786DC0F356
:10275000C200052800F264800124DFE800F0620373
:102760005559085D04249A4240F05E8002E020241E
:102770009A4259D1A21E1E2A00F2228140F6001070
:10278000C0F23D00DFE812F01F0032022F013202DA
:102790003202320235013202320232023202320297
:1027A000320232022201320232023202320232029A
:1027B0003202320232023202320232023202320279
:1027C000320232023E0104F01FF9B9694DF274324F
:1027D000C0F60202C1F30321515C01F01F01C840A1
:1027E000B969CAF8000001F00F01515C01F01F0146
:1027F000C840396AC1F30211515C01F01F01C840A1
:10280000002840F0FD80D7E108249A420CD1B1E7BE
:1028100010249A4208D1ADE740249A4204D1A9E796
:1028200080249A423FF4A6AFBCF5004F40F064808C
:10283000402C00F2DB8140F60010C0F23D00DFE8E2
:1028400014F041003801D501D5017601D501D5013B
:10285000D5018201D501D501D501D501D501D5011B
:10286000D5011801D501D501D501D501D501D50175
:10287000D501D501D501D501D501D501D501D501A8
:10288000D5018901D501D501D501D501D501D501E4
:10289000D501D501D501D501D501D501D501D50188
:1028A000D501D501D501D501D501D501D501D50178
:1028B000D501D501D501D501D501D501D501D50168
:1028C000D501320104F0A0F8B9694DF27432C0F6B6
:1028D0000202C1F30321515C01F01F01C840B96934
:1028E000CAF8000001F00F01515C01F01F01C8405F
:1028F000F969C1F30211F5E0402C00F2778140F64E
:102900000010C0F23D00DFE814F04100F300710157
:10291000710118017101710171013C0171017101B5
:1029200071017101710171017101C10071017101C8
:102930007101710171017101710171017101710107
:102940007101710171017101710143017101710125
:1029500071017101710171017101710171017101E7
:1029600071017101710171017101710171017101D7
:1029700071017101710171017101710171017101C7
:1029800071017101710171017101D10004F03CF814
:10299000B9694DF27432C0F60202C1F30321515CF1
:1029A00001F01F01C840B969CAF8000001F00F0129
:1029B000515C01F01F01C840F969C1F30211B0E098
:1029C000402C40F013814FF400401BE03A6849F27C
:1029D0000000C0F2D03012F0200F1EBF3A68C2F3E0
:1029E000C102D0400EE01DA805F0F6F91E9838B9D6
:1029F000E2E04CA805F084FA4D98002800F0DC8055
:102A0000D8F8241048F2E072D8F80440C0F6010269
:102A100032F8112004EB4403B0FBF2F19942C0F00C
:102A2000E5802303994200F2E18000210023002683
:102A300010F07EFB09022246002341EA10610002E9
:102A400010EB540041F1000110F072FB4FF6FF4211
:102A5000A0F54071C0F20F02914200F2C780D8F891
:102A60000010C8604FF00110C8F86800C8E91C6683
:102A7000A9E03A6849F20000C0F2D03012F0200F0D
:102A80001EBF3A68C2F3C102D04063E03A6849F21F
:102A90000000C0F2D03012F0200F1EBF3A68C2F31F
:102AA000C102D04074E04FF4004053E04FF40040C6
:102AB0006EE003F0A9FFB9694DF27432C0F602026C
:102AC000C1F30321515C01F01F01C840B969CAF884
:102AD000000001F00F01515C01F01F01C840F969CD
:102AE000C1F30221515C01F01F01C84080BB63E0CB
:102AF00003F08AFFB9694DF27432C0F60202C1F3E5
:102B00000321515C01F01F01C840B969CAF80000F7
:102B100001F00F01515C01F01F01C840F969C1F3D8
:102B20000221515C01F01F01C84078BB44E01DA8A0
:102B300005F052F91E9858B93EE01DA805F04CF971
:102B40001E9818BB38E04CA805F0DAF94D9898B3F8
:102B5000D8F8241048F2E072C0F6010232F81110E1
:102B6000B0FBF1F0D8F804104A0802EB4000B0FBCB
:102B7000F1F04FF6F071014038D0C0F34200084345
:102B800017E04CA805F0BCF94D98A8B1D8F824106E
:102B900048F2E072C0F6010232F81110B0FBF1F019
:102BA000D8F8041000EB5100B0FBF1F080B210280F
:102BB0001CD3D8F80010C8604FF001110020C8F8ED
:102BC0006810C8E91C00D8F82800002877D0C10791
:102BD00014D181071DD4410726D401072FD4C10683
:102BE00038D4810641D441064AD45DE04FF001114A
:102BF0000020C8F86810C8E91C00DDE1D8F8001012
:102C00004A68D8F82C3022F400321A434A6081070F
:102C1000E1D5D8F800104A68D8F8303022F4803274
:102C20001A434A604107D8D5D8F800104A68D8F846
:102C3000343022F480221A434A600107CFD5D8F8F5
:102C400000104A68D8F8383022F400421A434A602B
:102C5000C106C6D5D8F800108A68D8F83C3022F4EE
:102C600080521A438A608106BDD5D8F800108A6860
:102C7000D8F8403022F400521A438A60410613D536
:102C8000D8F800104A68D8F8443022F48012B3F51E
:102C9000801F42EA03024A6006D14A68D8F84830E9
:102CA00022F4C0021A434A60000608D5D8F8000092
:102CB0004168D8F84C2021F4002111434160D8F834
:102CC0000010486820F490404860886820F02A008E
:102CD0008860086840F0010008600020C8F88C0097
:102CE00028680A6812F0080F17D0CA6912F4001F8A
:102CF00013D1D8F800102A68131A0A68B3F1007FBC
:102D000080F03681520704D5CA6912F4006F40F092
:102D10003B81CA6912F4001FEDD00A6812F0040F5B
:102D200017D0C96911F4800F13D1D8F800102A68A0
:102D3000131A0A68B3F1007F80F01A81520704D594
:102D4000CA6912F4006F40F01F81CA6912F4800F43
:102D5000EDD04FF0200E00204FF0240CC8F884E096
:102D6000C8F888E0C8F86C00012088F88000C8F82E
:102D700084C0D8F800703E683A6822F001023A60D8
:102D8000BA6822F06042BA60D8F86430BBB1BA6861
:102D90004DF294354DF28C31C0F60205C0F60201B9
:102DA000C2F34262AC5C8A5C1201B2FBF4F4BA6812
:102DB000520F895CAD5C0901B1FBF5F201E0012223
:102DC0000124A8F86840A8F86A203E60C8F884E0AA
:102DD00088F88000C8F884C0002BD8F800100A6872
:102DE0000F6827F001070F608F6827F060678F601A
:102DF00017D088684DF294374DF28C36C0F6020732
:102E0000C0F60206C0F342603B5C305C0001B0FBE0
:102E1000F3F38868400F3F5C305C0001B0FBF7F0D3
:102E200000E00123A8F86830A8F86A000A602020B2
:102E3000242140F250144FF4FA47C02540264FF6A3
:102E4000FF7C4FF0020E4FF48029C8F88400C8F8C8
:102E50008410C2F20044D8F800100B680A6822F00F
:102E6000010223F000530A600022C8F864200B60BE
:102E700088F88020C8F8840045F644080123C4E996
:102E80000522C4E907274FF48037C4F20108A8F1EE
:102E90002001C4E90013C4E90222C4E90B22C4E9F9
:102EA000112504F14C054CC5C4E9160741F2000692
:102EB00080202266C4E91992C4E91B0EC4F874C0CC
:102EC000C5F60046306894F83800012803D1EFF3C6
:102ED000108072B6FEE794F8910030B9002084F8B3
:102EE0009000204603F04CFB2168DAF800000A68E5
:102EF00022F480320A604EF61B42C9F2CB52A0FB8C
:102F000002024FF6FC70C0F23F0000EA92206FF020
:102F10000302101A043054D00A6812F4803F1CBF18
:102F20000A6812F4803F07D00A6812F4803F03D089
:102F30000A6812F4803FEDD1022084F89100D4E9B0
:102F40000223581E022BA2F10102B0FA80F04FEAD0
:102F500050104FEA001008BF2020042A00F29D8084
:102F6000DFE802F0033E393C36004FF4806939E077
:102F700022F4D0700860886820F00100886008F1B1
:102F8000880008F1840111E04FF4006008620868CD
:102F900020F4D0700860886820F00100886020204C
:102FA00008F18801C8F8840008F18C0020220A602A
:102FB0000260002088F88000EFF3108072B600BF36
:102FC000FEE7D4F8940040F04000C4F894007EE797
:102FD00040F0030004E040F0010001E040F0020096
:102FE0004FF400694FF488324BF80200206A002841
:102FF00074D045F6240241F02000C4F20102904250
:1030000005D14FF4807004F023FC216800E000201B
:1030100045F6244341F02002C4F201039A4204D150
:103020004FF4007004F014FC216846F2240341F0D0
:103030002002C4F201039A4204D14FF4007004F05C
:1030400007FC216845F20445C5F60005A94204D1F4
:103050004FF4806004F0FCFB216805F120029142EE
:1030600003D14FF4006004F0F3FBA169B1F5002F28
:1030700008D1616C042913D008290CBF4FF4807269
:10308000626D0EE0A36A226A616C0125B3F1806F64
:1030900008BF02256A43120205E04FF00009A1E7CC
:1030A0004022236A5A4300EB800001254000B0FB18
:1030B000F2F04CF6CD42CCF6CC42A0FB0223DA086B
:1030C00002EB82077F4200EB4700082888BF05EB30
:1030D000D3020429626204BF50086062616841F053
:1030E0000200022806D1206D4FF40072012808BFAB
:1030F000002205E0206D0138B0FA80F0400942025C
:10310000376820680368B7F1005F1BD34CF21007E3
:1031100042EA090204F1100C04F1180E04F114093A
:1031200004F12C0604F14C05CFF2050742EA010A2E
:103130003B4004F14407036004F14803D4E9091259
:10314000090519E04CF2100142EA090A04F1280CC1
:1031500004F1140E04F12C0904F14C0604F14805A5
:10316000271DCFF2050101F10061194004F144036C
:103170000160626AA16912053F681B682D6847EA11
:103180000A073B43DEF800702B4335686FF0FF06FB
:103190002B43D9F800502B433B4304F15407194308
:1031A0001143DCF800201143026811434EF20F0274
:1031B0000160416891434160E169D4E90C23114306
:1031C00042681943114348F200024160CFF6F87299
:1031D0008168114081608ECF656E013906EB022255
:1031E000294319438368394304F16807194311439C
:1031F0004FF220028160C1681140C1608ECF11433F
:10320000C26806EB032341EA074111431943C16039
:1032100045F20441C5F60001884205D045F6040197
:10322000C4F20101884218D1D8F8000020F0010052
:10323000C8F8000094F8380001280ED1D4E90F0135
:103240006FF00F0202EB00100843C8F80000D8F836
:10325000000040F00100C8F800000020C4F894000D
:1032600084F89000012084F891000FF6306003F09C
:1032700083F840F2706040F21847C2F20040C5F691
:1032800002070078BFF35F8F10F0010F02F066872E
:1032900040F2746140F20400C2F20041C2F2004008
:1032A00008600FF60C6105F09FFC48F6903040F284
:1032B0007868C0F60100C2F200482030C8F800006B
:1032C00040F27C60C2F200400078BFF35F8F10F0E4
:1032D000010F02F0548740F2806400200421CDE900
:1032E0001F00CDE91D00C2F200442068426920465B
:1032F000904758B1D4F8A000002875D04DF662115F
:103300000422C0F6020105F06FFC6DE0D4F88400E1
:1033100004280CD3D4F8A000002865D04DF6B111D4
:103320000422C0F60201042305F05EFC5CE04CF2CE
:10333000A922410104F104094CF2B92C4CF2D963E1
:10334000C0F60002C0F6000CC0F6000349F80120E8
:1033500009EB40110020DDE91D75DDE91F62C1E9BF
:10336000010CC1E90337C1E90556CA610423D4F849
:10337000841009EB411201315361C4F88410D4F870
:103380009C10621882F8883048F6314304EB8102C1
:103390000131C0F60003C2F88C30C4F89C10CDE9AE
:1033A0001F00CDE91D000921206842692046904791
:1033B00050B1D4F8A00040F21847C5F6020798B102
:1033C0004DF6621109229CE7D4F884000428C2F06B
:1033D0004B85D4F8A00040F21847C5F6020718B193
:1033E0004DF6B11109229CE744F6D355C1F26205AE
:1033F00043F63C199FEDD8CB9FEDD9EB9FEDDA8BCF
:103400009FEDDBAB9FEDDC9ADFEDDC9A46F2676265
:1034100040F26C24B7EE00FBB6EE00DB4FF0010A81
:103420004FF07D0CC2F20049C6F26662C2F200445F
:1034300009F104000490002001F08AB92820C9F89D
:1034400034005220D9F824400EF002FAC9F84000A6
:1034500052200EF0FDF9C9F8440052200EF0F8F9A0
:10346000C9F848004FF4A4700EF0F2F9C9F85400FE
:10347000A4200EF0EDF91B9052200EF0E9F91990FE
:1034800052200EF0E5F91A90D9F8400068B1D9F849
:10349000440000281CBF1A98002806D0199800285C
:1034A0001CBF1B98002840F0D2811B9840F20804F2
:1034B000C2F20044002800F0D280207C002800F0F6
:1034C000CB80A0681B99081A010B042900F2C78061
:1034D000E268800952F820100129C0F2C08002EB96
:1034E00080008900FDF73BFDB9E000EE105A022E86
:1034F000B8EEC0BB1B990B460A6141F80C5F08444B
:1035000000EBC502C3E900109A602ADB1B989FED0F
:1035100092EB6F1E00F58C74002005E01B983EEEC8
:103520000FEB0834013F00699FED950B00282EEE4C
:10353000000B80EE0B0BB1EE401B00FE01CBB0EE9A
:103540004C0B12F0F9FFB7EEC00B04ED010AB0EE20
:103550004C0B13F0C9FDB7EEC00B002F84ED000A31
:10356000DCD11B98B0EE4B0B00F1140413F014FEE9
:10357000B4EEC00BF1EE10FA03D7B0EE4B0B13F024
:103580000BFE13F031F99FED76EB40F21847042063
:103590002946C5F6020709E001EE100AB8EEC11B84
:1035A000B4EEC10BF1EE10FAB8BF084691FBF0F291
:1035B00002FB101242B1042804D0022814BF0230CA
:1035C0000320E9E70220E7E791FBF0F1E4E80201DC
:1035D0000129EBDC042E3ADB05EBD57000EE105A26
:1035E0000026002540101A90B8EEC0CB1B9C013578
:1035F00000EE105AB8EEC00B80EE0C0B30EE0D0B47
:1036000020EE0EBBB0EE4B0B12F096FFA068B7EEAB
:10361000C00B304480ED000AB0EE4B0B13F064FD9C
:10362000A068B7EEC00B3044083680ED010A1A9846
:103630008542DCDB9FED48CB02F084BB28684EF26C
:10364000E141C0F6020105F0CFFA02F011BB9FED97
:1036500042CB1B9C02F076BB21680020884719985A
:10366000B0B1207C88B1A0681999081A010B04290F
:103670000ED8E268800952F82010012908DB02EB1D
:1036800080008900FDF76BFC02E02168002088477C
:103690001A98B0B1207C88B1A0681A99081A010B59
:1036A00004290ED8E268800952F82010012908DBAD
:1036B00002EB80008900FDF752FC02E02168002047
:1036C00088474DF2C560C0F6020002F055FE4DF28B
:1036D0007E50C0F6020002F06DBB322908DB68693B
:1036E0004DF66101C0F6020105F07EFA06990DE083
:1036F000226908444B1C31281268C5F8AC31C8BF98
:10370000323806990AEBC000C0E90612D5F8AC8140
:10371000B8F1000F61D068684DF63804C0F60204B5
:103720000E1ADAF8A8010AEBC0018969B14256DA2B
:10373000B8F1000F48DD411C3028A8F10108C8BFCE
:103740000021CAF8A811C5F8AC81B8F1000FE8D182
:1037500043E000BF00BF00BF000000000000000009
:10376000182D4454FB2109C000000000009C91402A
:103770000000000000E08540000080450000A042FD
:10378000182D4454FB2119C0B76DDBB66DDBC63F65
:10379000DBB66DDBB66D2540000024420000004220
:1037A000000004420000084200000C4200001042E9
:1037B0000000144200001C42000018420000FA42BF
:1037C000000020420000FA456869214605F00CFA25
:1037D000D5F8AC81B8F1000FA3D14FF0000843F247
:1037E0007C7044F6D35540F26C244FF07D0CC2F24D
:1037F0000040C1F26205C2F2004400698045C2F295
:10380000F782DAF8A8E1069A0AEBCE00D1178069B0
:10381000121A61EBE07043F27C71C2F20041496818
:10382000CB1701EB9371B2EBA10270EBE170C2F226
:10383000DF82B8F1010FC0F27E8408F003001A9015
:10384000A8F10100032880F01E83002384E3D9F847
:10385000480000283FF429AE1FED350BCDF858B0D5
:10386000CDF850800AEB540413F078F820EE08BB32
:103870001FED390B13F072F81FED39FA20EE081B1B
:10388000B7EECB0BB0EE084AB1EE005AB1EE046AC7
:10389000B1EE087AF1EE0C0AF2EE022AF2EE043AE8
:1038A000F2EE064AF2EE085AF2EE0A6AF2EE0C7AEC
:1038B000B2EE0EBAB3EE00CA1B99B3EE01EAF3EE14
:1038C00002BAF3EE04CA1594204600264FF0000B0E
:1038D00000254FF0040AB7EEC11BB0EE403AF2EEFD
:1038E000001A31EE401A81EE0F1A01EE043AB0EEE2
:1038F000404A31EE012A01EE054AB0EE405A32EE5E
:10390000002A01EE065AB0EE406A01EE076AB0EEF8
:10391000407A01EE207AF0EE400A41EE210AF0EE04
:10392000401A41EE221AF0EE402A41EE232AF0EE30
:10393000403AC1ED081AF3EE0B1A41EE243AF0EECC
:10394000404AC1ED092AF3EE0C2A41EE254AF0EE79
:10395000405AC1ED0A3AF3EE0D3A41EE265AF0EE26
:10396000406AC1ED0B4AF3EE0E4A41EE276AF0EED3
:10397000407AC1ED0C5AF3EE0F5A41EE0B7AB0EEDD
:1039800040BAC1ED0D6A5FED7B6A01EE0CBAB0EE94
:1039900040CAC1ED0E7A5FED7E7A01EE0ECAB0EE3E
:1039A00040EA81ED0FBA1FED81BA01EE2BEA81EDFD
:1039B00010CA71EE00BAB0EE40CA81ED11EAC1ED55
:1039C00000BA81ED012A81ED023AB0EE402AB3EE51
:1039D000053A81ED034AB3EE064A81ED045AB3EE8F
:1039E000075A81ED056AB3EE086A81ED067AB3EEF7
:1039F000097AC1ED070AF3EE0A0AB0EE40EAF0EEEA
:103A000040BA01EE032AB0EE403A01EE043AB0EEBD
:103A1000404A01EE054AB0EE405A01EE065AB0EEB9
:103A2000406A01EE076AB0EE407A01EE207AF0EECD
:103A3000400A41EE210AF0EE401A41EE221AF0EE61
:103A4000402A41EE232AF0EE403A41EE243AF0EECD
:103A5000404A41EE254AF0EE405A41EE265AF0EE39
:103A6000406A41EE276AF0EE407A41EE0B7A1FED94
:103A7000B2BA01EE0BCA1FEDB3BA01EE0BEA1FEDAD
:103A8000B4BA41EE0BBAB0EE40BA01EE2CBAF3EE86
:103A900003CA81ED13BAB0EE40BA01EE2CBAFFEEC4
:103AA00000CA81ED12BA0BEE104AB8EECBBA81ED26
:103AB000142A81ED153A81ED164A1FEDC24A81EDB7
:103AC000175A1FEDC35A81ED186A1FEDC42A1FED66
:103AD000C46AB0EE403A81ED197AC1ED1A0AC1ED1F
:103AE0001B1AC1ED1C2AC1ED1D3AC1ED1E4AC1EDE4
:103AF0001F5AC1ED206AC1ED217A81ED22CA81ED04
:103B000023EAC1ED24BA3BEE2CBA5FEDD2CA01EE36
:103B1000043AB0EE404A01EE054AB0EE405A8CEE4F
:103B20008BBA01EE0F0A82EE0B2A01EE065A81EDE6
:103B3000254A81ED263A81ED275A81ED280AB7EE14
:103B4000C21AB7EE080B002131EE000BBDEEC01B10
:103B5000BDEEC00BC9F83C60189110EE100A89ED5B
:103B60000E1A04461B98002700EB850906F0030097
:103B7000A5EB0008E01900EE100AB8EEC00A2BEE23
:103B8000000AB7EEC00A80EE0A0B12F0E7FE99EDCC
:103B9000001A20EE080B0137B7EEC00BB4EEC01AC6
:103BA000F1EE10FAE6DA19981A9943F63C19C2F2C6
:103BB000004920F81540781E21F8150004EB070095
:103BC000A0F1010019D1D9F84010002221F81520E8
:103BD000D9F8441021F81520D9F8482022F815A06A
:103BE000189A002A57D1002D51D06B1E05F0030200
:103BF000032B1DD20023BABB49E0D9F8401004EBD7
:103C0000D47222F0010221F81520D9F8441021F8CD
:103C100015B0A11A39440239CA1701EB9271D9F8CB
:103C2000482021F0030104318B4422F8151032E0C2
:103C30000F1D002337F8044C0433984504F10404A5
:103C400027F8044C37F8024C04F1040427F8024C1E
:103C50003C8804F104043C807C8804F104047C80EA
:103C600007F10807E6D192B131F81370012A07F184
:103C7000040721F813700AD001EB4301022A4B8894
:103C800003F104034B801EBF8A8804328A8001211D
:103C90000BF1040B189101350136292D7FF461AF2A
:103CA0004FEA4B0420460DF0D3FD0021C9F84C002B
:103CB000B1EB4B0F0BD02146FDF72FF920460DF04D
:103CC000C7FD2146C9F85000FDF727F904E00020A0
:103CD0000DF0BEFDC9F85000D9F84C0000281CBFFB
:103CE000D9F85000002823D140F20800C2F2004069
:103CF000007C002800F0568140F208001B99C2F2B7
:103D000000408068091AB1F5A04F80F05A8140F256
:103D100008008A09C2F20040C06850F82210012948
:103D2000C0F2478100EB82008900FDF718F940E1FD
:103D30009FEDCF0B12F012FE9FEDCF1B0025B7EECB
:103D400000FB20EE010BB7EEC0CB1A98002DF0EE71
:103D50004CBA30F91540199830F91530D9E91010DE
:103D600030F9150031F915101EBF1B9A02EB8502C0
:103D700052ED01BA012C59DB40009FEDC18B9FED44
:103D8000C2AB9FEDC39BDFEDC4EACB4699461794C7
:103D90001893A0EB41071B9800EB850696ED00EA0F
:103DA00000EE109AB8EEC00A2BEE000AB7EEC00A79
:103DB00080EE090B12F0D2FDD6ED00CA20EE080B02
:103DC000DBE913A8B7EEC00B3EEE000A3CEEEB1A9F
:103DD00080EE01EA2EEE2E0AB7EEC00A30EE0D0B91
:103DE00012F002FDB7EECE1ABDEEC00B0AEB0701D2
:103DF00010EE100A3FEE411BB0EE4D0B01EE0A0B28
:103E000021F8190012F0F0FCBDEEC00B08EB070121
:103E1000013CB0EE6CEA10EE100A21F8190009F12D
:103E20000109BDD1DDE91703D9460344D9F83C00A7
:103E300001358342C8BFC9F83C30292D85D140F2F5
:103E40000800C2F20040007C002800F0D68040F25A
:103E500008001B99C2F200408068091AB1F5A04F12
:103E600080F0DA8040F208008A09C2F20040C0689F
:103E700050F822100129C0F2C78000EB82008900AF
:103E8000FDF76DF8C0E01A980023A8EB00001B9026
:103E90000EEB030131290A46C8BF323A002B0AEB68
:103EA000C202D5694FEA15664FEA15424FEA152757
:103EB0006DB205F1800907D04BFA82F281444CFAC9
:103EC00086F044FA87F502E070B252B27DB28030DB
:103ED00002F1800B05F180074D1C0AF118068A1CBF
:103EE00001F1030C0433312DC8BFA1F13105312A92
:103EF00006EBC5056D68C8BFA1F13002BCF1310FFA
:103F000006EBC2025268C8BFA1F12F0C06EBCC0130
:103F1000496800EB256000EB226000EB216000F5B2
:103F2000C07C4BFAA5F040FAA2F040FAA1F000F5EF
:103F3000C07B47FA95F040FA92F040FA91F000F514
:103F4000C07449FA85F040FA82F040FA81F01B997A
:103F500000F5C07099429BD11A992546E146002987
:103F600000F0E9800EEB0304312C2146C8BF323942
:103F7000002B0AEBC101CA694FEA12614FEA1246EF
:103F80004FEA122752B202F1800E61D0864449FAFC
:103F900081F000F180094BFA86F000F1800B45FAC0
:103FA00087F05CE040F20800C2F2004001680020A7
:103FB000884740F20800C2F20040007C002800F070
:103FC0005B8140F208001999C2F200408068081A2B
:103FD000010B042900F2578140F208018009C2F266
:103FE0000041CA6852F820100129C0F24C8102EB4E
:103FF00080008900FCF7B3FF45E140F20800C2F2FF
:10400000004001680020884740F20800C2F20040EA
:10401000007C002800F05F8140F208001999C2F28C
:1040200000408068081A010B042900F25B8140F20D
:1040300008018009C2F20041CA6852F82010012923
:10404000C0F2508102EB80008900FCF788FF49E153
:1040500048B200F1800970B200F1800B78B200F133
:1040600080051A98012835D1704664E000BF00BF72
:10407000B76DDBB66DDBC63F00000000009C9140D1
:1040800000000000009C91C0000000000000B04053
:104090000000000000E085400000804553414920B9
:1040A00044656D6F2073746172746564210A0D003C
:1040B00053657474696E672075702054656E736FF4
:1040C00072466C6F77204C697465204D6963726F1E
:1040D00000000000601C3128C8BFA4F131000AEBC9
:1040E000C000C06909EB206101F180094BFAA0F121
:1040F00001F1800B45FA90F14EFA80F001F1800554
:104100001A998030022916D0A11C3129C8BFA4F108
:1041100030010AEBC101C96909EB216240FA81F063
:1041200002F180094BFAA1F2803002F1800B45FACE
:1041300091F202F180054FEAE874C1174246234626
:104140000FF06DF882462846E917424623460FF0E5
:1041500066F8BAF1000F4FF000014FF0000642463A
:104160002346D8BF8A464FEAEB718245BCBF012681
:10417000824658460FF053F882454FEAE9714246AD
:104180002346BCBF0226824648460FF048F88245C7
:104190004EF2C061BCBF0326824643F27C70C0F67B
:1041A0000201C2F20040D0F8B00188420DD043F2C3
:1041B0007C71C2F20041D1F8B4210699891AB2F19A
:1041C000004F08BF6FF0004101E06FF0004143F283
:1041D0007C7244F6D35540F2184743F63C1940F23E
:1041E0006C244FF07D0CC2F20042C1F26205C5F6AC
:1041F0000207C2F20049C2F20044127A924541F32A
:10420000F78548F68032C0F6010252F82620824235
:1042100007D143F27C70C2F20040C068814241F392
:10422000E785069943F27C705FFA8AF3C2F2004098
:10423000C0F8B021C0F8B41140F2746000914EF69D
:104240004211C2F20040C0F60201006804F0CCFC4A
:1042500040F26C2444F6D3554FF07D0CC2F200447A
:10426000C1F2620501F0C4BD333373BF0000A04248
:104270000000004A00FEFF4640F20800C2F2004083
:1042800001680020884740F20800C2F20040007C2C
:10429000A8B140F208021A99C2F200429068081AC6
:1042A000010B042912D8D268800952F82010012984
:1042B0000CDB02EB80008900FCF751FE06E040F2C7
:1042C0000800C2F200400168002088474DF2E96012
:1042D000C0F60200EFE140F20800C2F200400168BF
:1042E0000020884740F20800C2F20040007CC8B1BC
:1042F00040F208001A99C2F200408068081A010BC7
:10430000042916D840F208018009C2F20041CA68A7
:1043100052F8201001290CDB02EB80008900FCF729
:104320001EFE06E040F20800C2F2004001680020D4
:10433000884743F63C101599C2F20040C06B884292
:1043400080F2B58143F63C10C2F2004004460A20D8
:10435000A06540F29910C0F2D730E06540F23330EA
:10436000A4F86000606B606680000DF071FAA066D2
:104370000022616EB2EB810F07D08900FCF7CDFD02
:1043800043F63C10C2F20040806E002800F0AF817E
:1043900043F63C110122C2F200410E464C6A496BC1
:1043A000C6E91B20FA207167B6F858500DF050FA94
:1043B0000028B06700F0A681B4FA84F14FF0010A3A
:1043C00043F63C191FED588A5FED589AC1F1190167
:1043D000C2F200496A1AC1F109010AFA02F2C9F8E7
:1043E0007C1047F67C7100EE102AF0EE480AF8EED9
:1043F00040BAB7EE000A018080EE2B0A30EE290A9F
:1044000012F0AEFA1FED669A1FED66FAB6EE00AA3C
:10441000002420EE090A30EE0A1AB4EECF0ABDEEEF
:10442000C11AF1EE10FA11EE100AC8BF47F6FF707C
:10443000D9F878104880A1F10C00C9F8780065E03F
:10444000A51CF0EE480A0AFA05F600EE106A06EB23
:104450005607B8EE400A80EE2B0A30EE290A12F019
:104460007FFA01EE107A20EE09BAF0EE480A7600E3
:10447000B8EE411A3BEE0ACA81EE2B1A31EE290A38
:1044800012F06EFA01EE106A20EE09EAF0EE480A28
:10449000B8EE411ABDEECCCA81EE2B1A31EE291AC4
:1044A000B0EE410A12F05CFAB4EECFBA1CEE100A7C
:1044B00020EE090A3EEE0A1AF1EE10FA30EE0A2A50
:1044C000B4EECFEAC8BF47F6FF70D9F87810BDEE5A
:1044D000C11ABDEEC22AF1EE10FAB4EECF0A11EE07
:1044E000102A12EE103A01EBC4012C460883C8BF13
:1044F00047F6FF72F1EE10FAC8BF47F6FF73121AC3
:10450000181AC0EB8202801A4A838883601C1E2C12
:104510004FF0FF32F0EE480A0AFA00F000EE100AFF
:104520004FEA400100EB5005B8EE400A08BF02EB2D
:10453000400180EE2B0A01EE101A30EE290AB8EE87
:1045400041CA12F00DFAB0EE40BA00EE105AF0EE89
:10455000480A8CEE2BEAB8EE400A80EE2B0A30EEC9
:10456000290A12F0FDF9B0EE40CA3EEE290AF0EE3B
:10457000480A12F0F5F92BEE091A2CEE093A20EE52
:10458000090A31EE0A2AB4EECF1A30EE0A4ABDEE1D
:10459000C22AF1EE10FAB4EECF3A12EE101A33EE50
:1045A0000A2AC8BF47F6FF71D9F87800BDEEC21AD3
:1045B000BDEEC42AF1EE10FAB4EECF0A11EE103AB5
:1045C00012EE107A00EBC4021182C8BF47F6FF73E7
:1045D000F1EE10FAC8BF47F6FF775B1A1E2CA7EB67
:1045E0000101C1EB8303A1EB0301538291827FF4AC
:1045F00027AF06210C30C9F880A0C9F88410C9F88B
:104600007800D9F80010D9F80C004900FCF785FCB7
:10461000D9F80010D9F814004900FCF77EFC0024FA
:10462000A9F81840C9F81040D9F82410D9F81C008E
:104630004900FCF772FCD9E908016FF0030202EAB5
:1046400041010431FCF769FCD9F83410D9F8540061
:10465000082202EBC101FCF782FCD9E9191089009C
:10466000FCF77DFC48F608709FEDDDCB9FEDDEEB9F
:104670009FEDDF8B9FEDE0AB9FEDE19ADDF8508081
:1046800044F6D3554FF0310EB7EE00FB4FF07D0CE2
:10469000C2F20040C1F26205047043F6C410C2F2D7
:1046A0000040047040F26C24C2F20044E3E04DF29A
:1046B000ED40C0F6020001F05FFE9FEDC9CB9FED1B
:1046C000CAEB9FEDCB8B9FEDCCAB9FEDCD9ADFED91
:1046D000CD9ADDF858B040F2184743F63C19B7EED2
:1046E00000FBC5F60207C2F20049FEF7F0BF4DF22B
:1046F0006150C0F6020001F03FFE4DF2CF50C0F60F
:10470000020009E04DF26150C0F6020001F034FEF3
:104710004DF2A350C0F6020001F02EFE9FEDB0CB8B
:104720009FEDB1EB9FEDB28B9FEDB3AB9FEDB49AD4
:10473000DFEDB49ADDF858B040F2184743F63C1963
:10474000B7EE00FBC5F60207C2F2004901F034BB28
:10475000079040F26C60C2F200400146006800F130
:10476000640340F27460C2F200400B60D0F800B005
:1047700048F60070C2F20040007800285ED053FB7B
:1047800002F00693C11001EBD07848F60870C2F22F
:104790000040007801285DD104988421FCF7DFFBFC
:1047A0004FF4A070C9F808004FF4F070C9F8000089
:1047B0004FF470700DF04CF80028C9F8040001F0B7
:1047C000D781D9F800000025002801F0F8819FED7D
:1047D0008E1B00EE100A0024B8EE400AB7EEC00AA5
:1047E00081EE000BB7EEC00BB7EEC0BA00EE104A78
:1047F000B8EEC00B30EE0D0B20EE0B0B11F09CFE53
:10480000B0EE4D1B00EE4D1BB7EEC10B20EE090ABA
:10481000B7EEC00A30EE0D0B11F0E6FFBDEEC00B97
:10482000D9F8041010EE100A21F814000134D9F858
:1048300000008442DAD3400001F0C2B94EF29D512B
:10484000584600224FF4F563C0F6020104F0CCF99B
:1048500001F0B9BA43F63810C2F20040006850FBCC
:1048600002F0C11001EBD070A8EB000EBEF1310FC9
:10487000A8BF4FF0310ECEF1310001286EDB48F6B3
:1048800004710EEB8E020346C2F20041D2000968A9
:104890008F5C013B0F7001EB02077E784E70BE7893
:1048A0008E70FE78CE703E790E717E794E71BE7933
:1048B0008E71FE79CE713E7A0E727E7A4E72BE7A1B
:1048C0008E72FE7ACE723E7B0E737E7B4E73BE7B03
:1048D0008E73FE7BCE733E7C0E747E7C4E74BE7CEB
:1048E0008E74FE7CCE743E7D0E757E7D4E75BE7DD3
:1048F0008E75FE7DCE753E7E0E767E7E4E76BE7EBB
:104900008E76FE7ECE763E7F0E777E7F4E77BE7FA2
:104910008E77FE7FCE7797F8206081F8206097F839
:10492000216081F8216097F8226081F8226097F871
:10493000236081F8236097F8246081F8246097F859
:10494000256081F8256097F8266081F8266097F841
:10495000277081F8277001F1280199D1BEF1010F6C
:10496000CDF814E0C1F27F80059B4FF4F56203EBB4
:104970008301A2EBC1010A9108F10101C91A01EBFF
:1049800081018A00002A4FF0000145F2AC264DF269
:10499000AC5E0B9009924FF00000C8BF1146C0F604
:1049A0000206C0F6010E09010A1852FB05F35F1357
:1049B00007EBD37303FB0CF3A2EB8322D3097C2B0D
:1049C00002D806EB420206E0A2F57A42D3097C2B1C
:1049D0001ED80EEB420212881BE000BF00BF00BFD2
:1049E0000000000000000000182D4454FB2109C005
:1049F00000000000009C91400000000000E08540A5
:104A0000000080450000A042182D4454FB211940AD
:104A1000002224F810200130B0F5007FC4D148F600
:104A2000047043F6C411C2F20040C2F200410068B3
:104A300008900878002806BF81F800A0214604F5F8
:104A4000A071D9F80040D9E90303E51A00EB43004F
:104A5000B5F5007F28BF4FF400756A00FCF7E6F952
:104A6000D9F81000D9F800E028447045C9F81000C2
:104A7000C0F0E487D9F80C00012C0EDB4946D9F8C8
:104A80000490621E04F00307D1F81480032A06D2B2
:104A900000258346002F6AD1B0E00025AEE0A7EBE9
:104AA000040A002583464FF0000C1B97BBF9002039
:104AB000B9F900702EB217FB02F10A0B11F0006F6A
:104AC000A8F80020BBF90220B9F9027017FB02F325
:104AD0004FEA1332A8F80220BBF90420B9F9047098
:104AE00017FB02F24FEA1237A8F80470BBF9067000
:104AF000B9F9064009F108090BF1080B14FB07F797
:104B00004FEA1734A8F80640ACEB113408F1080856
:104B100008BF0C0B21B2B142ACEB1331D8BF2C460D
:104B200013F0006F08BF190B23B20DB29D42ACEB1E
:104B30001233ACEB1735D8BF214612F0006F08BF17
:104B4000130B0AB21CB29442D8BF0B4617F0006F89
:104B500008BF3D0B19B22AB28A42D8BF1D461AF1CE
:104B6000040AA3D11B9F4FF0010A002F46D0BBF9C6
:104B70000010B9F900202BB212FB01F10A0B11F061
:104B8000006FA8F800204FF00002A2EB113208BF1E
:104B90000A0B11B29942D8BF2A46012F15B22DD067
:104BA000BBF90210B9F9022012FB01F10A0B11F056
:104BB000006FA8F802204FF00002A2EB113208BFEC
:104BC0000A0B11B2A942D8BF2A46022F15B215D03E
:104BD000BBF90410B9F9042012FB01F10A0B11F022
:104BE000006FA8F804204FF00002A2EB113208BFBA
:104BF0000A0B11B2A942C8BF154600BF43F63C19C3
:104C0000C2F20049D9F8082000EB4201AEEB0202E3
:104C100052000EF028FBA9F81850D9F80810D9E96D
:104C20000420D9F81C40511AC9F8101029B2B1FA61
:104C300081F111390C91D9E909C8B8F1000F0AD0F6
:104C4000A8F1010708F0030E032F09D20027BEF1D7
:104C5000000F2AD144E04FF00008C44542D848E094
:104C60000C9EA8EB0E0B0027062500BF4319611907
:104C700004EB470233F8063CB34021F8063C00EB56
:104C8000470104374B88BB4503FA06F353808988F4
:104C900001FA06F19180415B01FA06F1615305F1D9
:104CA0000805E3D1BEF1000F1AD030F817100C9BA5
:104CB000BEF1010F01FA03F124F8171010D0791C8E
:104CC000BEF1020F30F8112002FA03F224F811208D
:104CD00006D0B91C30F81100984024F8110000BF2C
:104CE000C44506D9ACEB080104EB48004900FCF7C9
:104CF00014F9D9F82020D9F82C0021460EF0F4F848
:104D0000D9F820006FF07F081290D9E90E02824294
:104D100040F36281129C531E171A1B1A17F00307E7
:104D200004EB80010DD0B1F9025034F92060043158
:104D3000012F15FB05F516FB065644F8206037D108
:104D40000130032BC0F04881131F1F1A0AEB970391
:104D500013F003033CD0B1F90250B1F90060012B0C
:104D600015FB05F516FB06560E60B1F90650B1F9B4
:104D7000046015FB05F516FB06564E60B1F90A50A6
:104D8000B1F9086015FB05F516FB06568E60B1F902
:104D90000E50B1F90C6015FB05F516FB0656CE60FA
:104DA0001AD101F11003043010310C2F7BD213E122
:104DB000B1F90250B1F90060022F15FB05F516FBA1
:104DC000065641F8046B34D10230032BBCD203E108
:104DD0000B460C2F67D2FFE0B1F91250B1F9106009
:104DE000022B15FB05F516FB06560E61B1F91650A0
:104DF000B1F9146015FB05F516FB06564E61B1F9C5
:104E00001A50B1F9186015FB05F516FB06568E61B0
:104E1000B1F91E50B1F91C6015FB05F516FB0656DD
:104E2000CE6115D101F12003083020310C2F3AD288
:104E3000D2E0B1F90260B1F90070033016FB06F65A
:104E400017FB07670F600431032BBFF47DAFC3E08E
:104E5000B1F92260B1F920300C3016FB06F613FBD5
:104E600003630B62B1F92660B1F9243016FB06F634
:104E700013FB03634B62B1F92A60B1F9283016FBCA
:104E800006F613FB03638B62B1F92E60B1F92C3087
:104E900016FB06F613FB0363CB6201F130033031DE
:104EA0000C2FC0F09980101AB1F90270B1F90020EE
:104EB000103817FB07F712FB02721A60B1F906707F
:104EC000B1F9042017FB07F712FB02725A60B1F91F
:104ED0000A70B1F9082017FB07F712FB02729A60FB
:104EE000B1F90E70B1F90C2017FB07F712FB027233
:104EF000DA60B1F91270B1F9102017FB07F712FB55
:104F000002721A61B1F91670B1F9142017FB07F794
:104F100012FB02725A61B1F91A70B1F9182017FB2D
:104F200007F712FB02729A61B1F91E70B1F91C20E9
:104F300017FB07F712FB0272DA61B1F92270B1F9BF
:104F4000202017FB07F712FB02721A62B1F92670D4
:104F5000B1F9242017FB07F712FB02725A62B1F96C
:104F60002A70B1F9282017FB07F712FB02729A6228
:104F7000B1F92E70B1F92C2017FB07F712FB027262
:104F8000DA62B1F93270B1F9302017FB07F712FB82
:104F900002721A63B1F93670B1F9342017FB07F7C2
:104FA00012FB02725A63B1F93A70B1F9382017FB5B
:104FB00007F712FB02729A63B1F93E70B1F93C2017
:104FC00001F1400117FB07F712FB0272DA6303F1EC
:104FD00040037FF469AF00BFD9F83410B1F1FF3F4F
:104FE0000846139140F38A82D9E91026D9E9124084
:104FF000D9F854E000214FF0000800271190D9F8AB
:105000005000CDF834E01090704600BF1690901C10
:10501000134634F9022B159136F9021BB946C446E2
:105020001790012A14DB119802F00305149500EB88
:10503000410A109800EB4100B3F90010129B03EBFA
:105040008101531E032B09D24FF0000800274EE0C8
:10505000179A4FF00008002770E000BFAA1A4FF01F
:10506000000B00234FF000080027CDE90E461A90F0
:10507000CDE918A11B921A9A1998ABF1100B50F8B0
:105080001310D55E02EB030EC5FB018700EB430551
:10509000D5E90140BEF90260189ABEF904A0ED6896
:1050A000BEF906E0C6FB0487D65ECAFB0087CEFBCE
:1050B0000587C1FB06C9D1180833B1F90260B1F9FF
:1050C0000420B1F90610C4FB06C9C0FB02C91B9A33
:1050D000C5FB01C90432CDD11999DDF860A01A9839
:1050E0000F9EDDE90DE4A1EB0B019A441844149DD9
:1050F000179A03468B460DB3DBF80000B3F9001096
:10510000012DC1FB0087BAF90010C0FB01C915D001
:10511000DBF80400B3F90210022DC1FB0087BAF9D5
:105120000210C0FB01C909D0DBF80800B3F9041074
:10513000C1FB0087BAF90410C0FB01C91698C0E989
:1051400000C90830159B139D591CAB427FF45EAF1C
:1051500043F63C196FF07F08C2F20049D9F8346079
:10516000012EC0F2CE810C9D4FF0000A7446F1462C
:10517000199600BF54F808EFD4F804B0BBF1000F43
:105180000CD1BEF1000F3CD0BEFA8EF040F0010011
:10519000C0F11F01881C36D1002391E1BEFA8EF0C8
:1051A000BBF1000F00F1200018BFBBFA8BF01B947D
:1051B00040F00100C0F13F00811C03D14FF0000C12
:1051C000002264E1A0F120020123C0F1200103FAD2
:1051D00000F823FA01F1002A00EBD070A8BF03FA0F
:1051E00002F103EB60024FEA6000A8BF4FF0000835
:1051F00002F0030203281A9215D24FF0000C00228D
:1052000092E0002069E1012301EBD172B44603FA78
:1052100001F003EB6201521001F00301032A80F058
:1052200096800023C5E0013A4FF0000C101A0022CE
:105230001CEB080642EB0104BEEB06037BEB040308
:1052400004D25FEA52024FEA3C030AE05FEA5202EC
:105250004FEA3C0313EB08034A41BEEB060E6BEB2F
:10526000040B4FEA980646EA81755C1942EB9106F9
:10527000BEEB04077BEB060704D25FEA52024FEA5B
:1052800033030BE05FEA52024FEA91074FEA330320
:105290005B197A41BEEB040E6BEB060B4FEA181755
:1052A00047EA01741E1942EB111CBEEB06057BEBAD
:1052B0000C0505D25FEA52024FEA33040CE000BF4E
:1052C0005FEA52024FEA11154FEA3303E4186A41CC
:1052D000BEEB060E6BEB0C0B4FEA981343EA8165AD
:1052E000661942EB9113BEEB06077BEB030705D271
:1052F0005FEA52024FEA340C0DE000BF5FEA52024F
:105300004FEA91174FEA340414EB050C7A41BEEBD7
:10531000060E6BEB030B4FEA1823043043EA0168D7
:105320004FEA11217FF484AF1A98199E002800F0EB
:10533000AE801CEB080042EB0103BEEB00047BEBEC
:10534000030456D25FEA52024FEA3C0C5CE04B1E6B
:105350009F1A00231E18B64532BF5A0800EB5302AD
:10536000AEEB060E02EB90039E4501D2520804E01C
:105370008608AEEB030E06EB520202EB10139E45BD
:1053800002D2520805E000BF0609AEEB030E06EBA1
:10539000520202EB9016B64502D2530805E000BF58
:1053A0008309AEEB060E03EB520304374FEA1020DD
:1053B000D0D10029664600F083801A18964532BF86
:1053C0005B0800EB5303AEEB020E012978D0820894
:1053D00066469F18BE4532BF5B0802EB5303AEEB37
:1053E000070E02296CD0000919188E4563D25B089C
:1053F00066E05FEA52024FEA3C0717EB080C4A41AD
:10540000BEEB000E6BEB030B1A9801283ED04FEA5F
:1054100098008B0840EA81701CEB000442EB030506
:10542000BEEB04067BEB050604D25FEA52024FEAAC
:105430003C0C0AE05FEA52024FEA3C0717EB000C13
:105440005A41BEEB040E6BEB050B1A9802281DD0D7
:105450004FEA181040EA017009091CEB000342EB07
:105460000104BEEB03057BEB040504D25FEA5202A4
:105470004FEA3C0C0AE05FEA52024FEA3C0717EBA6
:10548000000C4A41BEEB030E6BEB040B199EBCEB08
:105490000E0062EA0C016FF07F0872EB0B004FF018
:1054A000000038BF0120002918BF01210C9D1B9C62
:1054B0000840604411E000EB5303AEEB010E00BF67
:1054C0009E454FF000004FF6FF7188BF0120591A2A
:1054D00018BF01210840184480B2E8400AF1010ACF
:1054E00049F8040BB2457FF445AEDDF834E043F6ED
:1054F0003C194FF0010AC2F2004904E0D9F854E027
:1055000001E04FF0010AD9F86400012836DBB9F850
:105510006000D9F86810002209F15E0312F0010F53
:1055200008BF09F15C035EF82270D9F8586051F8A1
:1055300022401B88B740A7FB0365C3F58043E4FB0B
:105540000365B30B43EA8543BB4241F8223088BF71
:105550003B46FB1AD9F85870FB405EF82270A0FB5E
:105560000776BF0B47EA86479F4238BF1F464EF873
:1055700022700132D9F864309A42CDDBD9F86C0040
:105580006FF03F0400285AD0D9F87400012856DB88
:10559000D9F87000D9F87810002200BF50F82230F6
:1055A000022B03D831F8133028E000BFB3FA83F799
:1055B0004FF400166FF00A05A6EB07470B2605EB24
:1055C0002745A6EB2746B7F5302F23FA05F5B8BFD8
:1055D00003FA06F501EB673333F9086C33F90A7CFB
:1055E0006FF39F2533F80C3C15FB06F6761106EB9E
:1055F00047176F4307F5804703EBD733D9F87C6033
:105600005EF822701BB2A7FB0337C6F12005F340FA
:1056100007FA05F5203E2B43002EA8BF27FA06F314
:1056200004EB931703FB03F6B3F5005F38BF370DA8
:105630004EF822700132D9F874309A42AEDBD9F8B4
:105640003470CDF834E0012FC0F25B81D9F88000CE
:1056500078B1D9F82400D9F884E0012FB0FA80F0AD
:10566000C0F11909C9F100080FD10D98014607468C
:10567000B8E0791E07F00300032980F0018172462B
:105680007146002840F01C8133E10D9807F0010CB1
:10569000ACEB0705074600BF3E68B9F1000F06FAFC
:1056A00009F4B8BF26FA08F4022C41D3B4FA84F600
:1056B000C6F11F01F343002B0AFA01F2C6F12003E1
:1056C000A8BF0022C3F111031029A4EB0202C6F106
:1056D0000F0442FA04F438BF02FA03F44DF2A8436F
:1056E000C0F60103621204EB01416FF35F241E4612
:1056F00033F8123006EB420252881944D21A4FF4A2
:10570000004362434BF2721401EB22410022E1FBA1
:1057100004324FF6FF74190C41EA024101FA0EF10E
:1057200001F50046B4EB164F18BF340C01E000BF82
:1057300000240480B9F1000F796807F1080701FA25
:1057400009F4B8BF21FA08F4012C41D9B4FA84F164
:10575000C1F11F02CE430AFA02F3002EA8BF0023B4
:10576000102AA4EB0303C1F12004C1F10F01C4F11D
:10577000110443FA01F138BF03FA04F14DF2A844D1
:10578000C0F601044B1201EB02426FF35F21264683
:1057900034F8134006EB43035B8822441B1B4BF297
:1057A000721459434FF4004302EB21410022E1FB04
:1057B00004324FF6FF74190C41EA024101FA0EF16E
:1057C00001F50046B4EB164F18BF340C01E000BFE2
:1057D00000244480043002357FF45EAFBCF1000F3A
:1057E00000F087803968B9F1000F01FA09F7B8BFF6
:1057F00021FA08F7022F40D3B7FA87F1C1F11F024F
:10580000CE430AFA02F3002EA8BF0023102AA7EB0A
:105810000303C1F12007C1F10F01C7F1110743FADA
:1058200001F138BF03FA07F14DF2A847C0F60107AE
:105830004B1201EB02426FF35F213E4637F81370C3
:1058400006EB43035B883A44DB1B4BF27217594368
:105850004FF4004302EB21410022E1FB0732190C17
:1058600041EA024101FA0EF101F500424FF6FF71E3
:10587000B1EB124F18BF110C00E00021018038E09D
:10588000C31B724671464FF6FF7600BF1768B742DA
:1058900028BF37460F805768B74228BF37464F802A
:1058A0009768B74228BF37468F80D7681032B74213
:1058B00028BF37460433CF8001F10801E6D1C0B1DB
:1058C00013684FF6FF77BB4228BF3B4601280B8089
:1058D0000FD053684FF6FF77BB4228BF3B460228E4
:1058E0004B8006D090684FF6FF72904228BF10465A
:1058F000888043F63C196FF07F08C2F20049D9F85E
:105900003470002F00F09A80791E07F0030C0329F1
:1059100001D2002149E00A98089940F2B173A7EB3F
:105920000C0E7F22CCF2CE4301EB000B0D98002130
:10593000071D40F24D1000BF37F8046C00EB06263F
:105940007608A6FB036508EB15267F2EA8BF164632
:105950000BF801600BEB0106043137F8025C00EB39
:1059600005256D08A5FB035408EB14257F2DA8BF62
:10597000154675703D8800EB05256D08A5FB0354A1
:1059800008EB14257F2DA8BF1546B5707D88083714
:1059900000EB05256D08A5FB035408EB14257F2DAE
:1059A000A8BF15468E45F570C6D10D9C4FF07F0EF1
:1059B00040F24D15BCF1000F40D00B9834F8113077
:1059C00000EB8002089805EB03235B0800EBC202A2
:1059D00040F2B170CCF2CE40A3FB003708EB1723A6
:1059E0007F2BA8BF7346BCF1010F535426D04B1C2C
:1059F00040F2B17034F81370CCF2CE4005EB0727BB
:105A00007F08A7FB007608EB16277F2FA8BF7746F5
:105A1000BCF1020FD75411D0881C40F2B17334F896
:105A20001010CCF2CE4305EB01214908A1FB031372
:105A300008EB13217F29A8BF714611540A98099ACF
:105A400044F6D35540F26C244FF07D0CC1F2620550
:105A5000C2F20044283014320A900B9801460130FB
:105A60003029FEF68FAF069943F6381040F21847FA
:105A7000C2F20040C5F6020701600598002800F058
:105A8000B78142F6C87042F6D0760021C2F20040DB
:105A9000C2F20046006800BF725C7318425442189C
:105AA00023315F78B1F5F56F57709F789770DF7885
:105AB000D7701F7917715F7957719F799771DF7967
:105AC000D7711F7A17725F7A57729F7A9772DF7A4F
:105AD000D7721F7B17735F7B57739F7B9773DF7B37
